{
	"data": {
		"bytecode": {
			"linkReferences": {},
			"object": "6080604052348015600e575f80fd5b5061108f8061001c5f395ff3fe608060405234801561000f575f80fd5b5060043610610060575f3560e01c80630aae162e146100645780631922701e146100945780632d83e6b1146100b0578063760b1eee146100e05780638e068eb014610116578063c8cdac5c14610146575b5f80fd5b61007e60048036038101906100799190610b3b565b610162565b60405161008b9190610b7e565b60405180910390f35b6100ae60048036038101906100a99190610bc1565b6102eb565b005b6100ca60048036038101906100c59190610b3b565b6104ee565b6040516100d79190610b7e565b60405180910390f35b6100fa60048036038101906100f59190610b3b565b610672565b60405161010d9796959493929190610c0e565b60405180910390f35b610130600480360381019061012b9190610b3b565b6106ce565b60405161013d9190610b7e565b60405180910390f35b610160600480360381019061015b9190610c7b565b610867565b005b5f805f808473ffffffffffffffffffffffffffffffffffffffff1673ffffffffffffffffffffffffffffffffffffffff1681526020019081526020015f206040518060e00160405290815f82015f9054906101000a900473ffffffffffffffffffffffffffffffffffffffff1673ffffffffffffffffffffffffffffffffffffffff1673ffffffffffffffffffffffffffffffffffffffff168152602001600182015481526020016002820154815260200160038201548152602001600482015481526020016005820154815260200160068201548152505090505f73ffffffffffffffffffffffffffffffffffffffff16815f015173ffffffffffffffffffffffffffffffffffffffff16036102ae576040517f08c379a00000000000000000000000000000000000000000000000000000000081526004016102a590610d5e565b60405180910390fd5b5f8160600151036102c2575f9150506102e6565b8060600151606482608001516102d89190610da9565b6102e29190610e17565b9150505b919050565b5f805f8473ffffffffffffffffffffffffffffffffffffffff1673ffffffffffffffffffffffffffffffffffffffff1681526020019081526020015f2090505f73ffffffffffffffffffffffffffffffffffffffff16815f015f9054906101000a900473ffffffffffffffffffffffffffffffffffffffff1673ffffffffffffffffffffffffffffffffffffffff16036103ba576040517f08c379a00000000000000000000000000000000000000000000000000000000081526004016103b190610d5e565b60405180910390fd5b5f8210156103fd576040517f08c379a00000000000000000000000000000000000000000000000000000000081526004016103f490610eb7565b60405180910390fd5b8060020154821115610492578273ffffffffffffffffffffffffffffffffffffffff167f74b737e83b985a0afa446389d70cccab99d200a0a63101114130a2a2dfbba9128360405161044f9190610b7e565b60405180910390a26040517f08c379a000000000000000000000000000000000000000000000000000000000815260040161048990610f45565b60405180910390fd5b8181600301819055508273ffffffffffffffffffffffffffffffffffffffff167fa6b582f9fa77f5eb299250871d3b51c8ff3655dd554da3f9abb294b3e92f8e1f836040516104e19190610b7e565b60405180910390a2505050565b5f805f808473ffffffffffffffffffffffffffffffffffffffff1673ffffffffffffffffffffffffffffffffffffffff1681526020019081526020015f206040518060e00160405290815f82015f9054906101000a900473ffffffffffffffffffffffffffffffffffffffff1673ffffffffffffffffffffffffffffffffffffffff1673ffffffffffffffffffffffffffffffffffffffff168152602001600182015481526020016002820154815260200160038201548152602001600482015481526020016005820154815260200160068201548152505090505f73ffffffffffffffffffffffffffffffffffffffff16815f015173ffffffffffffffffffffffffffffffffffffffff160361063a576040517f08c379a000000000000000000000000000000000000000000000000000000000815260040161063190610d5e565b60405180910390fd5b6127108160c001518260a0015183606001516106569190610da9565b6106609190610da9565b61066a9190610e17565b915050919050565b5f602052805f5260405f205f91509050805f015f9054906101000a900473ffffffffffffffffffffffffffffffffffffffff16908060010154908060020154908060030154908060040154908060050154908060060154905087565b5f805f808473ffffffffffffffffffffffffffffffffffffffff1673ffffffffffffffffffffffffffffffffffffffff1681526020019081526020015f206040518060e00160405290815f82015f9054906101000a900473ffffffffffffffffffffffffffffffffffffffff1673ffffffffffffffffffffffffffffffffffffffff1673ffffffffffffffffffffffffffffffffffffffff168152602001600182015481526020016002820154815260200160038201548152602001600482015481526020016005820154815260200160068201548152505090505f73ffffffffffffffffffffffffffffffffffffffff16815f015173ffffffffffffffffffffffffffffffffffffffff160361081a576040517f08c379a000000000000000000000000000000000000000000000000000000000815260040161081190610d5e565b60405180910390fd5b5f81604001510361082e575f915050610862565b806020015181604001516108429190610da9565b61271082606001516108549190610da9565b61085e9190610e17565b9150505b919050565b5f73ffffffffffffffffffffffffffffffffffffffff165f808873ffffffffffffffffffffffffffffffffffffffff1673ffffffffffffffffffffffffffffffffffffffff1681526020019081526020015f205f015f9054906101000a900473ffffffffffffffffffffffffffffffffffffffff1673ffffffffffffffffffffffffffffffffffffffff1614610932576040517f08c379a000000000000000000000000000000000000000000000000000000000815260040161092990610fad565b60405180910390fd5b5f8511801561094057505f84115b61097f576040517f08c379a00000000000000000000000000000000000000000000000000000000081526004016109769061103b565b60405180910390fd5b6040518060e001604052808773ffffffffffffffffffffffffffffffffffffffff1681526020018681526020018581526020015f8152602001828152602001848152602001838152505f808873ffffffffffffffffffffffffffffffffffffffff1673ffffffffffffffffffffffffffffffffffffffff1681526020019081526020015f205f820151815f015f6101000a81548173ffffffffffffffffffffffffffffffffffffffff021916908373ffffffffffffffffffffffffffffffffffffffff1602179055506020820151816001015560408201518160020155606082015181600301556080820151816004015560a0820151816005015560c082015181600601559050508573ffffffffffffffffffffffffffffffffffffffff167f747a12c5b34abe212a3a26b67b9a8edf3ceb6bd68207c9f6c11a5161432e161485604051610acd9190610b7e565b60405180910390a2505050505050565b5f80fd5b5f73ffffffffffffffffffffffffffffffffffffffff82169050919050565b5f610b0a82610ae1565b9050919050565b610b1a81610b00565b8114610b24575f80fd5b50565b5f81359050610b3581610b11565b92915050565b5f60208284031215610b5057610b4f610add565b5b5f610b5d84828501610b27565b91505092915050565b5f819050919050565b610b7881610b66565b82525050565b5f602082019050610b915f830184610b6f565b92915050565b610ba081610b66565b8114610baa575f80fd5b50565b5f81359050610bbb81610b97565b92915050565b5f8060408385031215610bd757610bd6610add565b5b5f610be485828601610b27565b9250506020610bf585828601610bad565b9150509250929050565b610c0881610b00565b82525050565b5f60e082019050610c215f83018a610bff565b610c2e6020830189610b6f565b610c3b6040830188610b6f565b610c486060830187610b6f565b610c556080830186610b6f565b610c6260a0830185610b6f565b610c6f60c0830184610b6f565b98975050505050505050565b5f805f805f8060c08789031215610c9557610c94610add565b5b5f610ca289828a01610b27565b9650506020610cb389828a01610bad565b9550506040610cc489828a01610bad565b9450506060610cd589828a01610bad565b9350506080610ce689828a01610bad565b92505060a0610cf789828a01610bad565b9150509295509295509295565b5f82825260208201905092915050565b7f436f6e747265706172746965206e6f6e2074726f7576656500000000000000005f82015250565b5f610d48601883610d04565b9150610d5382610d14565b602082019050919050565b5f6020820190508181035f830152610d7581610d3c565b9050919050565b7f4e487b71000000000000000000000000000000000000000000000000000000005f52601160045260245ffd5b5f610db382610b66565b9150610dbe83610b66565b9250828202610dcc81610b66565b91508282048414831517610de357610de2610d7c565b5b5092915050565b7f4e487b71000000000000000000000000000000000000000000000000000000005f52601260045260245ffd5b5f610e2182610b66565b9150610e2c83610b66565b925082610e3c57610e3b610dea565b5b828204905092915050565b7f4578706f736974696f6e206e652070657574207061732065747265206e6567615f8201527f7469766500000000000000000000000000000000000000000000000000000000602082015250565b5f610ea1602483610d04565b9150610eac82610e47565b604082019050919050565b5f6020820190508181035f830152610ece81610e95565b9050919050565b7f4578706f736974696f6e2064657061737365206c61206c696d697465206175745f8201527f6f72697365650000000000000000000000000000000000000000000000000000602082015250565b5f610f2f602683610d04565b9150610f3a82610ed5565b604082019050919050565b5f6020820190508181035f830152610f5c81610f23565b9050919050565b7f436f6e7472657061727469652064656a6120656e7265676973747265650000005f82015250565b5f610f97601d83610d04565b9150610fa282610f63565b602082019050919050565b5f6020820190508181035f830152610fc481610f8b565b9050919050565b7f53636f726520646520637265646974206574206c696d69746520646f6976656e5f8201527f74206574726520706f7369746966730000000000000000000000000000000000602082015250565b5f611025602f83610d04565b915061103082610fcb565b604082019050919050565b5f6020820190508181035f83015261105281611019565b905091905056fea26469706673582212201cad469a49f74c36a719cc02fc37ce26306f66c013099a5eddf4a72e1f5ed0d464736f6c634300081a0033",
			"opcodes": "PUSH1 0x80 PUSH1 0x40 MSTORE CALLVALUE DUP1 ISZERO PUSH1 0xE JUMPI PUSH0 DUP1 REVERT JUMPDEST POP PUSH2 0x108F DUP1 PUSH2 0x1C PUSH0 CODECOPY PUSH0 RETURN INVALID PUSH1 0x80 PUSH1 0x40 MSTORE CALLVALUE DUP1 ISZERO PUSH2 0xF JUMPI PUSH0 DUP1 REVERT JUMPDEST POP PUSH1 0x4 CALLDATASIZE LT PUSH2 0x60 JUMPI PUSH0 CALLDATALOAD PUSH1 0xE0 SHR DUP1 PUSH4 0xAAE162E EQ PUSH2 0x64 JUMPI DUP1 PUSH4 0x1922701E EQ PUSH2 0x94 JUMPI DUP1 PUSH4 0x2D83E6B1 EQ PUSH2 0xB0 JUMPI DUP1 PUSH4 0x760B1EEE EQ PUSH2 0xE0 JUMPI DUP1 PUSH4 0x8E068EB0 EQ PUSH2 0x116 JUMPI DUP1 PUSH4 0xC8CDAC5C EQ PUSH2 0x146 JUMPI JUMPDEST PUSH0 DUP1 REVERT JUMPDEST PUSH2 0x7E PUSH1 0x4 DUP1 CALLDATASIZE SUB DUP2 ADD SWAP1 PUSH2 0x79 SWAP2 SWAP1 PUSH2 0xB3B JUMP JUMPDEST PUSH2 0x162 JUMP JUMPDEST PUSH1 0x40 MLOAD PUSH2 0x8B SWAP2 SWAP1 PUSH2 0xB7E JUMP JUMPDEST PUSH1 0x40 MLOAD DUP1 SWAP2 SUB SWAP1 RETURN JUMPDEST PUSH2 0xAE PUSH1 0x4 DUP1 CALLDATASIZE SUB DUP2 ADD SWAP1 PUSH2 0xA9 SWAP2 SWAP1 PUSH2 0xBC1 JUMP JUMPDEST PUSH2 0x2EB JUMP JUMPDEST STOP JUMPDEST PUSH2 0xCA PUSH1 0x4 DUP1 CALLDATASIZE SUB DUP2 ADD SWAP1 PUSH2 0xC5 SWAP2 SWAP1 PUSH2 0xB3B JUMP JUMPDEST PUSH2 0x4EE JUMP JUMPDEST PUSH1 0x40 MLOAD PUSH2 0xD7 SWAP2 SWAP1 PUSH2 0xB7E JUMP JUMPDEST PUSH1 0x40 MLOAD DUP1 SWAP2 SUB SWAP1 RETURN JUMPDEST PUSH2 0xFA PUSH1 0x4 DUP1 CALLDATASIZE SUB DUP2 ADD SWAP1 PUSH2 0xF5 SWAP2 SWAP1 PUSH2 0xB3B JUMP JUMPDEST PUSH2 0x672 JUMP JUMPDEST PUSH1 0x40 MLOAD PUSH2 0x10D SWAP8 SWAP7 SWAP6 SWAP5 SWAP4 SWAP3 SWAP2 SWAP1 PUSH2 0xC0E JUMP JUMPDEST PUSH1 0x40 MLOAD DUP1 SWAP2 SUB SWAP1 RETURN JUMPDEST PUSH2 0x130 PUSH1 0x4 DUP1 CALLDATASIZE SUB DUP2 ADD SWAP1 PUSH2 0x12B SWAP2 SWAP1 PUSH2 0xB3B JUMP JUMPDEST PUSH2 0x6CE JUMP JUMPDEST PUSH1 0x40 MLOAD PUSH2 0x13D SWAP2 SWAP1 PUSH2 0xB7E JUMP JUMPDEST PUSH1 0x40 MLOAD DUP1 SWAP2 SUB SWAP1 RETURN JUMPDEST PUSH2 0x160 PUSH1 0x4 DUP1 CALLDATASIZE SUB DUP2 ADD SWAP1 PUSH2 0x15B SWAP2 SWAP1 PUSH2 0xC7B JUMP JUMPDEST PUSH2 0x867 JUMP JUMPDEST STOP JUMPDEST PUSH0 DUP1 PUSH0 DUP1 DUP5 PUSH20 0xFFFFFFFFFFFFFFFFFFFFFFFFFFFFFFFFFFFFFFFF AND PUSH20 0xFFFFFFFFFFFFFFFFFFFFFFFFFFFFFFFFFFFFFFFF AND DUP2 MSTORE PUSH1 0x20 ADD SWAP1 DUP2 MSTORE PUSH1 0x20 ADD PUSH0 KECCAK256 PUSH1 0x40 MLOAD DUP1 PUSH1 0xE0 ADD PUSH1 0x40 MSTORE SWAP1 DUP2 PUSH0 DUP3 ADD PUSH0 SWAP1 SLOAD SWAP1 PUSH2 0x100 EXP SWAP1 DIV PUSH20 0xFFFFFFFFFFFFFFFFFFFFFFFFFFFFFFFFFFFFFFFF AND PUSH20 0xFFFFFFFFFFFFFFFFFFFFFFFFFFFFFFFFFFFFFFFF AND PUSH20 0xFFFFFFFFFFFFFFFFFFFFFFFFFFFFFFFFFFFFFFFF AND DUP2 MSTORE PUSH1 0x20 ADD PUSH1 0x1 DUP3 ADD SLOAD DUP2 MSTORE PUSH1 0x20 ADD PUSH1 0x2 DUP3 ADD SLOAD DUP2 MSTORE PUSH1 0x20 ADD PUSH1 0x3 DUP3 ADD SLOAD DUP2 MSTORE PUSH1 0x20 ADD PUSH1 0x4 DUP3 ADD SLOAD DUP2 MSTORE PUSH1 0x20 ADD PUSH1 0x5 DUP3 ADD SLOAD DUP2 MSTORE PUSH1 0x20 ADD PUSH1 0x6 DUP3 ADD SLOAD DUP2 MSTORE POP POP SWAP1 POP PUSH0 PUSH20 0xFFFFFFFFFFFFFFFFFFFFFFFFFFFFFFFFFFFFFFFF AND DUP2 PUSH0 ADD MLOAD PUSH20 0xFFFFFFFFFFFFFFFFFFFFFFFFFFFFFFFFFFFFFFFF AND SUB PUSH2 0x2AE JUMPI PUSH1 0x40 MLOAD PUSH32 0x8C379A000000000000000000000000000000000000000000000000000000000 DUP2 MSTORE PUSH1 0x4 ADD PUSH2 0x2A5 SWAP1 PUSH2 0xD5E JUMP JUMPDEST PUSH1 0x40 MLOAD DUP1 SWAP2 SUB SWAP1 REVERT JUMPDEST PUSH0 DUP2 PUSH1 0x60 ADD MLOAD SUB PUSH2 0x2C2 JUMPI PUSH0 SWAP2 POP POP PUSH2 0x2E6 JUMP JUMPDEST DUP1 PUSH1 0x60 ADD MLOAD PUSH1 0x64 DUP3 PUSH1 0x80 ADD MLOAD PUSH2 0x2D8 SWAP2 SWAP1 PUSH2 0xDA9 JUMP JUMPDEST PUSH2 0x2E2 SWAP2 SWAP1 PUSH2 0xE17 JUMP JUMPDEST SWAP2 POP POP JUMPDEST SWAP2 SWAP1 POP JUMP JUMPDEST PUSH0 DUP1 PUSH0 DUP5 PUSH20 0xFFFFFFFFFFFFFFFFFFFFFFFFFFFFFFFFFFFFFFFF AND PUSH20 0xFFFFFFFFFFFFFFFFFFFFFFFFFFFFFFFFFFFFFFFF AND DUP2 MSTORE PUSH1 0x20 ADD SWAP1 DUP2 MSTORE PUSH1 0x20 ADD PUSH0 KECCAK256 SWAP1 POP PUSH0 PUSH20 0xFFFFFFFFFFFFFFFFFFFFFFFFFFFFFFFFFFFFFFFF AND DUP2 PUSH0 ADD PUSH0 SWAP1 SLOAD SWAP1 PUSH2 0x100 EXP SWAP1 DIV PUSH20 0xFFFFFFFFFFFFFFFFFFFFFFFFFFFFFFFFFFFFFFFF AND PUSH20 0xFFFFFFFFFFFFFFFFFFFFFFFFFFFFFFFFFFFFFFFF AND SUB PUSH2 0x3BA JUMPI PUSH1 0x40 MLOAD PUSH32 0x8C379A000000000000000000000000000000000000000000000000000000000 DUP2 MSTORE PUSH1 0x4 ADD PUSH2 0x3B1 SWAP1 PUSH2 0xD5E JUMP JUMPDEST PUSH1 0x40 MLOAD DUP1 SWAP2 SUB SWAP1 REVERT JUMPDEST PUSH0 DUP3 LT ISZERO PUSH2 0x3FD JUMPI PUSH1 0x40 MLOAD PUSH32 0x8C379A000000000000000000000000000000000000000000000000000000000 DUP2 MSTORE PUSH1 0x4 ADD PUSH2 0x3F4 SWAP1 PUSH2 0xEB7 JUMP JUMPDEST PUSH1 0x40 MLOAD DUP1 SWAP2 SUB SWAP1 REVERT JUMPDEST DUP1 PUSH1 0x2 ADD SLOAD DUP3 GT ISZERO PUSH2 0x492 JUMPI DUP3 PUSH20 0xFFFFFFFFFFFFFFFFFFFFFFFFFFFFFFFFFFFFFFFF AND PUSH32 0x74B737E83B985A0AFA446389D70CCCAB99D200A0A63101114130A2A2DFBBA912 DUP4 PUSH1 0x40 MLOAD PUSH2 0x44F SWAP2 SWAP1 PUSH2 0xB7E JUMP JUMPDEST PUSH1 0x40 MLOAD DUP1 SWAP2 SUB SWAP1 LOG2 PUSH1 0x40 MLOAD PUSH32 0x8C379A000000000000000000000000000000000000000000000000000000000 DUP2 MSTORE PUSH1 0x4 ADD PUSH2 0x489 SWAP1 PUSH2 0xF45 JUMP JUMPDEST PUSH1 0x40 MLOAD DUP1 SWAP2 SUB SWAP1 REVERT JUMPDEST DUP2 DUP2 PUSH1 0x3 ADD DUP2 SWAP1 SSTORE POP DUP3 PUSH20 0xFFFFFFFFFFFFFFFFFFFFFFFFFFFFFFFFFFFFFFFF AND PUSH32 0xA6B582F9FA77F5EB299250871D3B51C8FF3655DD554DA3F9ABB294B3E92F8E1F DUP4 PUSH1 0x40 MLOAD PUSH2 0x4E1 SWAP2 SWAP1 PUSH2 0xB7E JUMP JUMPDEST PUSH1 0x40 MLOAD DUP1 SWAP2 SUB SWAP1 LOG2 POP POP POP JUMP JUMPDEST PUSH0 DUP1 PUSH0 DUP1 DUP5 PUSH20 0xFFFFFFFFFFFFFFFFFFFFFFFFFFFFFFFFFFFFFFFF AND PUSH20 0xFFFFFFFFFFFFFFFFFFFFFFFFFFFFFFFFFFFFFFFF AND DUP2 MSTORE PUSH1 0x20 ADD SWAP1 DUP2 MSTORE PUSH1 0x20 ADD PUSH0 KECCAK256 PUSH1 0x40 MLOAD DUP1 PUSH1 0xE0 ADD PUSH1 0x40 MSTORE SWAP1 DUP2 PUSH0 DUP3 ADD PUSH0 SWAP1 SLOAD SWAP1 PUSH2 0x100 EXP SWAP1 DIV PUSH20 0xFFFFFFFFFFFFFFFFFFFFFFFFFFFFFFFFFFFFFFFF AND PUSH20 0xFFFFFFFFFFFFFFFFFFFFFFFFFFFFFFFFFFFFFFFF AND PUSH20 0xFFFFFFFFFFFFFFFFFFFFFFFFFFFFFFFFFFFFFFFF AND DUP2 MSTORE PUSH1 0x20 ADD PUSH1 0x1 DUP3 ADD SLOAD DUP2 MSTORE PUSH1 0x20 ADD PUSH1 0x2 DUP3 ADD SLOAD DUP2 MSTORE PUSH1 0x20 ADD PUSH1 0x3 DUP3 ADD SLOAD DUP2 MSTORE PUSH1 0x20 ADD PUSH1 0x4 DUP3 ADD SLOAD DUP2 MSTORE PUSH1 0x20 ADD PUSH1 0x5 DUP3 ADD SLOAD DUP2 MSTORE PUSH1 0x20 ADD PUSH1 0x6 DUP3 ADD SLOAD DUP2 MSTORE POP POP SWAP1 POP PUSH0 PUSH20 0xFFFFFFFFFFFFFFFFFFFFFFFFFFFFFFFFFFFFFFFF AND DUP2 PUSH0 ADD MLOAD PUSH20 0xFFFFFFFFFFFFFFFFFFFFFFFFFFFFFFFFFFFFFFFF AND SUB PUSH2 0x63A JUMPI PUSH1 0x40 MLOAD PUSH32 0x8C379A000000000000000000000000000000000000000000000000000000000 DUP2 MSTORE PUSH1 0x4 ADD PUSH2 0x631 SWAP1 PUSH2 0xD5E JUMP JUMPDEST PUSH1 0x40 MLOAD DUP1 SWAP2 SUB SWAP1 REVERT JUMPDEST PUSH2 0x2710 DUP2 PUSH1 0xC0 ADD MLOAD DUP3 PUSH1 0xA0 ADD MLOAD DUP4 PUSH1 0x60 ADD MLOAD PUSH2 0x656 SWAP2 SWAP1 PUSH2 0xDA9 JUMP JUMPDEST PUSH2 0x660 SWAP2 SWAP1 PUSH2 0xDA9 JUMP JUMPDEST PUSH2 0x66A SWAP2 SWAP1 PUSH2 0xE17 JUMP JUMPDEST SWAP2 POP POP SWAP2 SWAP1 POP JUMP JUMPDEST PUSH0 PUSH1 0x20 MSTORE DUP1 PUSH0 MSTORE PUSH1 0x40 PUSH0 KECCAK256 PUSH0 SWAP2 POP SWAP1 POP DUP1 PUSH0 ADD PUSH0 SWAP1 SLOAD SWAP1 PUSH2 0x100 EXP SWAP1 DIV PUSH20 0xFFFFFFFFFFFFFFFFFFFFFFFFFFFFFFFFFFFFFFFF AND SWAP1 DUP1 PUSH1 0x1 ADD SLOAD SWAP1 DUP1 PUSH1 0x2 ADD SLOAD SWAP1 DUP1 PUSH1 0x3 ADD SLOAD SWAP1 DUP1 PUSH1 0x4 ADD SLOAD SWAP1 DUP1 PUSH1 0x5 ADD SLOAD SWAP1 DUP1 PUSH1 0x6 ADD SLOAD SWAP1 POP DUP8 JUMP JUMPDEST PUSH0 DUP1 PUSH0 DUP1 DUP5 PUSH20 0xFFFFFFFFFFFFFFFFFFFFFFFFFFFFFFFFFFFFFFFF AND PUSH20 0xFFFFFFFFFFFFFFFFFFFFFFFFFFFFFFFFFFFFFFFF AND DUP2 MSTORE PUSH1 0x20 ADD SWAP1 DUP2 MSTORE PUSH1 0x20 ADD PUSH0 KECCAK256 PUSH1 0x40 MLOAD DUP1 PUSH1 0xE0 ADD PUSH1 0x40 MSTORE SWAP1 DUP2 PUSH0 DUP3 ADD PUSH0 SWAP1 SLOAD SWAP1 PUSH2 0x100 EXP SWAP1 DIV PUSH20 0xFFFFFFFFFFFFFFFFFFFFFFFFFFFFFFFFFFFFFFFF AND PUSH20 0xFFFFFFFFFFFFFFFFFFFFFFFFFFFFFFFFFFFFFFFF AND PUSH20 0xFFFFFFFFFFFFFFFFFFFFFFFFFFFFFFFFFFFFFFFF AND DUP2 MSTORE PUSH1 0x20 ADD PUSH1 0x1 DUP3 ADD SLOAD DUP2 MSTORE PUSH1 0x20 ADD PUSH1 0x2 DUP3 ADD SLOAD DUP2 MSTORE PUSH1 0x20 ADD PUSH1 0x3 DUP3 ADD SLOAD DUP2 MSTORE PUSH1 0x20 ADD PUSH1 0x4 DUP3 ADD SLOAD DUP2 MSTORE PUSH1 0x20 ADD PUSH1 0x5 DUP3 ADD SLOAD DUP2 MSTORE PUSH1 0x20 ADD PUSH1 0x6 DUP3 ADD SLOAD DUP2 MSTORE POP POP SWAP1 POP PUSH0 PUSH20 0xFFFFFFFFFFFFFFFFFFFFFFFFFFFFFFFFFFFFFFFF AND DUP2 PUSH0 ADD MLOAD PUSH20 0xFFFFFFFFFFFFFFFFFFFFFFFFFFFFFFFFFFFFFFFF AND SUB PUSH2 0x81A JUMPI PUSH1 0x40 MLOAD PUSH32 0x8C379A000000000000000000000000000000000000000000000000000000000 DUP2 MSTORE PUSH1 0x4 ADD PUSH2 0x811 SWAP1 PUSH2 0xD5E JUMP JUMPDEST PUSH1 0x40 MLOAD DUP1 SWAP2 SUB SWAP1 REVERT JUMPDEST PUSH0 DUP2 PUSH1 0x40 ADD MLOAD SUB PUSH2 0x82E JUMPI PUSH0 SWAP2 POP POP PUSH2 0x862 JUMP JUMPDEST DUP1 PUSH1 0x20 ADD MLOAD DUP2 PUSH1 0x40 ADD MLOAD PUSH2 0x842 SWAP2 SWAP1 PUSH2 0xDA9 JUMP JUMPDEST PUSH2 0x2710 DUP3 PUSH1 0x60 ADD MLOAD PUSH2 0x854 SWAP2 SWAP1 PUSH2 0xDA9 JUMP JUMPDEST PUSH2 0x85E SWAP2 SWAP1 PUSH2 0xE17 JUMP JUMPDEST SWAP2 POP POP JUMPDEST SWAP2 SWAP1 POP JUMP JUMPDEST PUSH0 PUSH20 0xFFFFFFFFFFFFFFFFFFFFFFFFFFFFFFFFFFFFFFFF AND PUSH0 DUP1 DUP9 PUSH20 0xFFFFFFFFFFFFFFFFFFFFFFFFFFFFFFFFFFFFFFFF AND PUSH20 0xFFFFFFFFFFFFFFFFFFFFFFFFFFFFFFFFFFFFFFFF AND DUP2 MSTORE PUSH1 0x20 ADD SWAP1 DUP2 MSTORE PUSH1 0x20 ADD PUSH0 KECCAK256 PUSH0 ADD PUSH0 SWAP1 SLOAD SWAP1 PUSH2 0x100 EXP SWAP1 DIV PUSH20 0xFFFFFFFFFFFFFFFFFFFFFFFFFFFFFFFFFFFFFFFF AND PUSH20 0xFFFFFFFFFFFFFFFFFFFFFFFFFFFFFFFFFFFFFFFF AND EQ PUSH2 0x932 JUMPI PUSH1 0x40 MLOAD PUSH32 0x8C379A000000000000000000000000000000000000000000000000000000000 DUP2 MSTORE PUSH1 0x4 ADD PUSH2 0x929 SWAP1 PUSH2 0xFAD JUMP JUMPDEST PUSH1 0x40 MLOAD DUP1 SWAP2 SUB SWAP1 REVERT JUMPDEST PUSH0 DUP6 GT DUP1 ISZERO PUSH2 0x940 JUMPI POP PUSH0 DUP5 GT JUMPDEST PUSH2 0x97F JUMPI PUSH1 0x40 MLOAD PUSH32 0x8C379A000000000000000000000000000000000000000000000000000000000 DUP2 MSTORE PUSH1 0x4 ADD PUSH2 0x976 SWAP1 PUSH2 0x103B JUMP JUMPDEST PUSH1 0x40 MLOAD DUP1 SWAP2 SUB SWAP1 REVERT JUMPDEST PUSH1 0x40 MLOAD DUP1 PUSH1 0xE0 ADD PUSH1 0x40 MSTORE DUP1 DUP8 PUSH20 0xFFFFFFFFFFFFFFFFFFFFFFFFFFFFFFFFFFFFFFFF AND DUP2 MSTORE PUSH1 0x20 ADD DUP7 DUP2 MSTORE PUSH1 0x20 ADD DUP6 DUP2 MSTORE PUSH1 0x20 ADD PUSH0 DUP2 MSTORE PUSH1 0x20 ADD DUP3 DUP2 MSTORE PUSH1 0x20 ADD DUP5 DUP2 MSTORE PUSH1 0x20 ADD DUP4 DUP2 MSTORE POP PUSH0 DUP1 DUP9 PUSH20 0xFFFFFFFFFFFFFFFFFFFFFFFFFFFFFFFFFFFFFFFF AND PUSH20 0xFFFFFFFFFFFFFFFFFFFFFFFFFFFFFFFFFFFFFFFF AND DUP2 MSTORE PUSH1 0x20 ADD SWAP1 DUP2 MSTORE PUSH1 0x20 ADD PUSH0 KECCAK256 PUSH0 DUP3 ADD MLOAD DUP2 PUSH0 ADD PUSH0 PUSH2 0x100 EXP DUP2 SLOAD DUP2 PUSH20 0xFFFFFFFFFFFFFFFFFFFFFFFFFFFFFFFFFFFFFFFF MUL NOT AND SWAP1 DUP4 PUSH20 0xFFFFFFFFFFFFFFFFFFFFFFFFFFFFFFFFFFFFFFFF AND MUL OR SWAP1 SSTORE POP PUSH1 0x20 DUP3 ADD MLOAD DUP2 PUSH1 0x1 ADD SSTORE PUSH1 0x40 DUP3 ADD MLOAD DUP2 PUSH1 0x2 ADD SSTORE PUSH1 0x60 DUP3 ADD MLOAD DUP2 PUSH1 0x3 ADD SSTORE PUSH1 0x80 DUP3 ADD MLOAD DUP2 PUSH1 0x4 ADD SSTORE PUSH1 0xA0 DUP3 ADD MLOAD DUP2 PUSH1 0x5 ADD SSTORE PUSH1 0xC0 DUP3 ADD MLOAD DUP2 PUSH1 0x6 ADD SSTORE SWAP1 POP POP DUP6 PUSH20 0xFFFFFFFFFFFFFFFFFFFFFFFFFFFFFFFFFFFFFFFF AND PUSH32 0x747A12C5B34ABE212A3A26B67B9A8EDF3CEB6BD68207C9F6C11A5161432E1614 DUP6 PUSH1 0x40 MLOAD PUSH2 0xACD SWAP2 SWAP1 PUSH2 0xB7E JUMP JUMPDEST PUSH1 0x40 MLOAD DUP1 SWAP2 SUB SWAP1 LOG2 POP POP POP POP POP POP JUMP JUMPDEST PUSH0 DUP1 REVERT JUMPDEST PUSH0 PUSH20 0xFFFFFFFFFFFFFFFFFFFFFFFFFFFFFFFFFFFFFFFF DUP3 AND SWAP1 POP SWAP2 SWAP1 POP JUMP JUMPDEST PUSH0 PUSH2 0xB0A DUP3 PUSH2 0xAE1 JUMP JUMPDEST SWAP1 POP SWAP2 SWAP1 POP JUMP JUMPDEST PUSH2 0xB1A DUP2 PUSH2 0xB00 JUMP JUMPDEST DUP2 EQ PUSH2 0xB24 JUMPI PUSH0 DUP1 REVERT JUMPDEST POP JUMP JUMPDEST PUSH0 DUP2 CALLDATALOAD SWAP1 POP PUSH2 0xB35 DUP2 PUSH2 0xB11 JUMP JUMPDEST SWAP3 SWAP2 POP POP JUMP JUMPDEST PUSH0 PUSH1 0x20 DUP3 DUP5 SUB SLT ISZERO PUSH2 0xB50 JUMPI PUSH2 0xB4F PUSH2 0xADD JUMP JUMPDEST JUMPDEST PUSH0 PUSH2 0xB5D DUP5 DUP3 DUP6 ADD PUSH2 0xB27 JUMP JUMPDEST SWAP2 POP POP SWAP3 SWAP2 POP POP JUMP JUMPDEST PUSH0 DUP2 SWAP1 POP SWAP2 SWAP1 POP JUMP JUMPDEST PUSH2 0xB78 DUP2 PUSH2 0xB66 JUMP JUMPDEST DUP3 MSTORE POP POP JUMP JUMPDEST PUSH0 PUSH1 0x20 DUP3 ADD SWAP1 POP PUSH2 0xB91 PUSH0 DUP4 ADD DUP5 PUSH2 0xB6F JUMP JUMPDEST SWAP3 SWAP2 POP POP JUMP JUMPDEST PUSH2 0xBA0 DUP2 PUSH2 0xB66 JUMP JUMPDEST DUP2 EQ PUSH2 0xBAA JUMPI PUSH0 DUP1 REVERT JUMPDEST POP JUMP JUMPDEST PUSH0 DUP2 CALLDATALOAD SWAP1 POP PUSH2 0xBBB DUP2 PUSH2 0xB97 JUMP JUMPDEST SWAP3 SWAP2 POP POP JUMP JUMPDEST PUSH0 DUP1 PUSH1 0x40 DUP4 DUP6 SUB SLT ISZERO PUSH2 0xBD7 JUMPI PUSH2 0xBD6 PUSH2 0xADD JUMP JUMPDEST JUMPDEST PUSH0 PUSH2 0xBE4 DUP6 DUP3 DUP7 ADD PUSH2 0xB27 JUMP JUMPDEST SWAP3 POP POP PUSH1 0x20 PUSH2 0xBF5 DUP6 DUP3 DUP7 ADD PUSH2 0xBAD JUMP JUMPDEST SWAP2 POP POP SWAP3 POP SWAP3 SWAP1 POP JUMP JUMPDEST PUSH2 0xC08 DUP2 PUSH2 0xB00 JUMP JUMPDEST DUP3 MSTORE POP POP JUMP JUMPDEST PUSH0 PUSH1 0xE0 DUP3 ADD SWAP1 POP PUSH2 0xC21 PUSH0 DUP4 ADD DUP11 PUSH2 0xBFF JUMP JUMPDEST PUSH2 0xC2E PUSH1 0x20 DUP4 ADD DUP10 PUSH2 0xB6F JUMP JUMPDEST PUSH2 0xC3B PUSH1 0x40 DUP4 ADD DUP9 PUSH2 0xB6F JUMP JUMPDEST PUSH2 0xC48 PUSH1 0x60 DUP4 ADD DUP8 PUSH2 0xB6F JUMP JUMPDEST PUSH2 0xC55 PUSH1 0x80 DUP4 ADD DUP7 PUSH2 0xB6F JUMP JUMPDEST PUSH2 0xC62 PUSH1 0xA0 DUP4 ADD DUP6 PUSH2 0xB6F JUMP JUMPDEST PUSH2 0xC6F PUSH1 0xC0 DUP4 ADD DUP5 PUSH2 0xB6F JUMP JUMPDEST SWAP9 SWAP8 POP POP POP POP POP POP POP POP JUMP JUMPDEST PUSH0 DUP1 PUSH0 DUP1 PUSH0 DUP1 PUSH1 0xC0 DUP8 DUP10 SUB SLT ISZERO PUSH2 0xC95 JUMPI PUSH2 0xC94 PUSH2 0xADD JUMP JUMPDEST JUMPDEST PUSH0 PUSH2 0xCA2 DUP10 DUP3 DUP11 ADD PUSH2 0xB27 JUMP JUMPDEST SWAP7 POP POP PUSH1 0x20 PUSH2 0xCB3 DUP10 DUP3 DUP11 ADD PUSH2 0xBAD JUMP JUMPDEST SWAP6 POP POP PUSH1 0x40 PUSH2 0xCC4 DUP10 DUP3 DUP11 ADD PUSH2 0xBAD JUMP JUMPDEST SWAP5 POP POP PUSH1 0x60 PUSH2 0xCD5 DUP10 DUP3 DUP11 ADD PUSH2 0xBAD JUMP JUMPDEST SWAP4 POP POP PUSH1 0x80 PUSH2 0xCE6 DUP10 DUP3 DUP11 ADD PUSH2 0xBAD JUMP JUMPDEST SWAP3 POP POP PUSH1 0xA0 PUSH2 0xCF7 DUP10 DUP3 DUP11 ADD PUSH2 0xBAD JUMP JUMPDEST SWAP2 POP POP SWAP3 SWAP6 POP SWAP3 SWAP6 POP SWAP3 SWAP6 JUMP JUMPDEST PUSH0 DUP3 DUP3 MSTORE PUSH1 0x20 DUP3 ADD SWAP1 POP SWAP3 SWAP2 POP POP JUMP JUMPDEST PUSH32 0x436F6E747265706172746965206E6F6E2074726F757665650000000000000000 PUSH0 DUP3 ADD MSTORE POP JUMP JUMPDEST PUSH0 PUSH2 0xD48 PUSH1 0x18 DUP4 PUSH2 0xD04 JUMP JUMPDEST SWAP2 POP PUSH2 0xD53 DUP3 PUSH2 0xD14 JUMP JUMPDEST PUSH1 0x20 DUP3 ADD SWAP1 POP SWAP2 SWAP1 POP JUMP JUMPDEST PUSH0 PUSH1 0x20 DUP3 ADD SWAP1 POP DUP2 DUP2 SUB PUSH0 DUP4 ADD MSTORE PUSH2 0xD75 DUP2 PUSH2 0xD3C JUMP JUMPDEST SWAP1 POP SWAP2 SWAP1 POP JUMP JUMPDEST PUSH32 0x4E487B7100000000000000000000000000000000000000000000000000000000 PUSH0 MSTORE PUSH1 0x11 PUSH1 0x4 MSTORE PUSH1 0x24 PUSH0 REVERT JUMPDEST PUSH0 PUSH2 0xDB3 DUP3 PUSH2 0xB66 JUMP JUMPDEST SWAP2 POP PUSH2 0xDBE DUP4 PUSH2 0xB66 JUMP JUMPDEST SWAP3 POP DUP3 DUP3 MUL PUSH2 0xDCC DUP2 PUSH2 0xB66 JUMP JUMPDEST SWAP2 POP DUP3 DUP3 DIV DUP5 EQ DUP4 ISZERO OR PUSH2 0xDE3 JUMPI PUSH2 0xDE2 PUSH2 0xD7C JUMP JUMPDEST JUMPDEST POP SWAP3 SWAP2 POP POP JUMP JUMPDEST PUSH32 0x4E487B7100000000000000000000000000000000000000000000000000000000 PUSH0 MSTORE PUSH1 0x12 PUSH1 0x4 MSTORE PUSH1 0x24 PUSH0 REVERT JUMPDEST PUSH0 PUSH2 0xE21 DUP3 PUSH2 0xB66 JUMP JUMPDEST SWAP2 POP PUSH2 0xE2C DUP4 PUSH2 0xB66 JUMP JUMPDEST SWAP3 POP DUP3 PUSH2 0xE3C JUMPI PUSH2 0xE3B PUSH2 0xDEA JUMP JUMPDEST JUMPDEST DUP3 DUP3 DIV SWAP1 POP SWAP3 SWAP2 POP POP JUMP JUMPDEST PUSH32 0x4578706F736974696F6E206E652070657574207061732065747265206E656761 PUSH0 DUP3 ADD MSTORE PUSH32 0x7469766500000000000000000000000000000000000000000000000000000000 PUSH1 0x20 DUP3 ADD MSTORE POP JUMP JUMPDEST PUSH0 PUSH2 0xEA1 PUSH1 0x24 DUP4 PUSH2 0xD04 JUMP JUMPDEST SWAP2 POP PUSH2 0xEAC DUP3 PUSH2 0xE47 JUMP JUMPDEST PUSH1 0x40 DUP3 ADD SWAP1 POP SWAP2 SWAP1 POP JUMP JUMPDEST PUSH0 PUSH1 0x20 DUP3 ADD SWAP1 POP DUP2 DUP2 SUB PUSH0 DUP4 ADD MSTORE PUSH2 0xECE DUP2 PUSH2 0xE95 JUMP JUMPDEST SWAP1 POP SWAP2 SWAP1 POP JUMP JUMPDEST PUSH32 0x4578706F736974696F6E2064657061737365206C61206C696D69746520617574 PUSH0 DUP3 ADD MSTORE PUSH32 0x6F72697365650000000000000000000000000000000000000000000000000000 PUSH1 0x20 DUP3 ADD MSTORE POP JUMP JUMPDEST PUSH0 PUSH2 0xF2F PUSH1 0x26 DUP4 PUSH2 0xD04 JUMP JUMPDEST SWAP2 POP PUSH2 0xF3A DUP3 PUSH2 0xED5 JUMP JUMPDEST PUSH1 0x40 DUP3 ADD SWAP1 POP SWAP2 SWAP1 POP JUMP JUMPDEST PUSH0 PUSH1 0x20 DUP3 ADD SWAP1 POP DUP2 DUP2 SUB PUSH0 DUP4 ADD MSTORE PUSH2 0xF5C DUP2 PUSH2 0xF23 JUMP JUMPDEST SWAP1 POP SWAP2 SWAP1 POP JUMP JUMPDEST PUSH32 0x436F6E7472657061727469652064656A6120656E726567697374726565000000 PUSH0 DUP3 ADD MSTORE POP JUMP JUMPDEST PUSH0 PUSH2 0xF97 PUSH1 0x1D DUP4 PUSH2 0xD04 JUMP JUMPDEST SWAP2 POP PUSH2 0xFA2 DUP3 PUSH2 0xF63 JUMP JUMPDEST PUSH1 0x20 DUP3 ADD SWAP1 POP SWAP2 SWAP1 POP JUMP JUMPDEST PUSH0 PUSH1 0x20 DUP3 ADD SWAP1 POP DUP2 DUP2 SUB PUSH0 DUP4 ADD MSTORE PUSH2 0xFC4 DUP2 PUSH2 0xF8B JUMP JUMPDEST SWAP1 POP SWAP2 SWAP1 POP JUMP JUMPDEST PUSH32 0x53636F726520646520637265646974206574206C696D69746520646F6976656E PUSH0 DUP3 ADD MSTORE PUSH32 0x74206574726520706F7369746966730000000000000000000000000000000000 PUSH1 0x20 DUP3 ADD MSTORE POP JUMP JUMPDEST PUSH0 PUSH2 0x1025 PUSH1 0x2F DUP4 PUSH2 0xD04 JUMP JUMPDEST SWAP2 POP PUSH2 0x1030 DUP3 PUSH2 0xFCB JUMP JUMPDEST PUSH1 0x40 DUP3 ADD SWAP1 POP SWAP2 SWAP1 POP JUMP JUMPDEST PUSH0 PUSH1 0x20 DUP3 ADD SWAP1 POP DUP2 DUP2 SUB PUSH0 DUP4 ADD MSTORE PUSH2 0x1052 DUP2 PUSH2 0x1019 JUMP JUMPDEST SWAP1 POP SWAP2 SWAP1 POP JUMP INVALID LOG2 PUSH5 0x6970667358 0x22 SLT KECCAK256 SHR 0xAD CHAINID SWAP11 BLOBHASH 0xF7 0x4C CALLDATASIZE 0xA7 NOT 0xCC MUL 0xFC CALLDATACOPY 0xCE 0x26 ADDRESS PUSH16 0x66C013099A5EDDF4A72E1F5ED0D46473 PUSH16 0x6C634300081A00330000000000000000 "
		},
		"gasEstimates": {
			"creation": {
				"codeDepositCost": "847800",
				"executionCost": "881",
				"totalCost": "848681"
			},
			"external": {
				"ajouterContrepartie(address,uint256,uint256,uint256,uint256,uint256)": "infinite",
				"calculerPertesAttendues(address)": "infinite",
				"calculerRatioCouverture(address)": "infinite",
				"calculerRisque(address)": "infinite",
				"contreparties(address)": "infinite",
				"mettreAJourExposition(address,uint256)": "infinite"
			}
		},
		"methodIdentifiers": {
			"ajouterContrepartie(address,uint256,uint256,uint256,uint256,uint256)": "c8cdac5c",
			"calculerPertesAttendues(address)": "2d83e6b1",
			"calculerRatioCouverture(address)": "0aae162e",
			"calculerRisque(address)": "8e068eb0",
			"contreparties(address)": "760b1eee",
			"mettreAJourExposition(address,uint256)": "1922701e"
		}
	},
	"abi": [
		{
			"anonymous": false,
			"inputs": [
				{
					"indexed": true,
					"internalType": "address",
					"name": "portefeuille",
					"type": "address"
				},
				{
					"indexed": false,
					"internalType": "uint256",
					"name": "limiteExposition",
					"type": "uint256"
				}
			],
			"name": "ContrepartieAjoutee",
			"type": "event"
		},
		{
			"anonymous": false,
			"inputs": [
				{
					"indexed": true,
					"internalType": "address",
					"name": "portefeuille",
					"type": "address"
				},
				{
					"indexed": false,
					"internalType": "uint256",
					"name": "nouvelleExposition",
					"type": "uint256"
				}
			],
			"name": "ExpositionMiseAJour",
			"type": "event"
		},
		{
			"anonymous": false,
			"inputs": [
				{
					"indexed": true,
					"internalType": "address",
					"name": "portefeuille",
					"type": "address"
				},
				{
					"indexed": false,
					"internalType": "uint256",
					"name": "exposition",
					"type": "uint256"
				}
			],
			"name": "LimiteDepassee",
			"type": "event"
		},
		{
			"inputs": [
				{
					"internalType": "address",
					"name": "_portefeuille",
					"type": "address"
				},
				{
					"internalType": "uint256",
					"name": "_scoreCredit",
					"type": "uint256"
				},
				{
					"internalType": "uint256",
					"name": "_limiteExposition",
					"type": "uint256"
				},
				{
					"internalType": "uint256",
					"name": "_probabiliteDefaut",
					"type": "uint256"
				},
				{
					"internalType": "uint256",
					"name": "_pertesEnCasDeDefaut",
					"type": "uint256"
				},
				{
					"internalType": "uint256",
					"name": "_collaterale",
					"type": "uint256"
				}
			],
			"name": "ajouterContrepartie",
			"outputs": [],
			"stateMutability": "nonpayable",
			"type": "function"
		},
		{
			"inputs": [
				{
					"internalType": "address",
					"name": "_portefeuille",
					"type": "address"
				}
			],
			"name": "calculerPertesAttendues",
			"outputs": [
				{
					"internalType": "uint256",
					"name": "",
					"type": "uint256"
				}
			],
			"stateMutability": "view",
			"type": "function"
		},
		{
			"inputs": [
				{
					"internalType": "address",
					"name": "_portefeuille",
					"type": "address"
				}
			],
			"name": "calculerRatioCouverture",
			"outputs": [
				{
					"internalType": "uint256",
					"name": "",
					"type": "uint256"
				}
			],
			"stateMutability": "view",
			"type": "function"
		},
		{
			"inputs": [
				{
					"internalType": "address",
					"name": "_portefeuille",
					"type": "address"
				}
			],
			"name": "calculerRisque",
			"outputs": [
				{
					"internalType": "uint256",
					"name": "",
					"type": "uint256"
				}
			],
			"stateMutability": "view",
			"type": "function"
		},
		{
			"inputs": [
				{
					"internalType": "address",
					"name": "",
					"type": "address"
				}
			],
			"name": "contreparties",
			"outputs": [
				{
					"internalType": "address",
					"name": "portefeuille",
					"type": "address"
				},
				{
					"internalType": "uint256",
					"name": "scoreCredit",
					"type": "uint256"
				},
				{
					"internalType": "uint256",
					"name": "limiteExposition",
					"type": "uint256"
				},
				{
					"internalType": "uint256",
					"name": "expositionCourante",
					"type": "uint256"
				},
				{
					"internalType": "uint256",
					"name": "collaterale",
					"type": "uint256"
				},
				{
					"internalType": "uint256",
					"name": "probabiliteDefaut",
					"type": "uint256"
				},
				{
					"internalType": "uint256",
					"name": "pertesEnCasDeDefaut",
					"type": "uint256"
				}
			],
			"stateMutability": "view",
			"type": "function"
		},
		{
			"inputs": [
				{
					"internalType": "address",
					"name": "_portefeuille",
					"type": "address"
				},
				{
					"internalType": "uint256",
					"name": "_nouvelleExposition",
					"type": "uint256"
				}
			],
			"name": "mettreAJourExposition",
			"outputs": [],
			"stateMutability": "nonpayable",
			"type": "function"
		}
	]
}